{
 "cells": [
  {
   "cell_type": "code",
   "execution_count": 4,
   "metadata": {},
   "outputs": [],
   "source": [
    "############## PLEASE RUN THIS CELL FIRST! ###################\n",
    "\n",
    "# import everything and define a test runner function\n",
    "from importlib import reload\n",
    "from helper import run\n",
    "import ecc\n",
    "import helper\n",
    "import tx\n",
    "import script"
   ]
  },
  {
   "cell_type": "code",
   "execution_count": 2,
   "metadata": {},
   "outputs": [
    {
     "name": "stdout",
     "output_type": "stream",
     "text": [
      "True\n"
     ]
    }
   ],
   "source": [
    "from tx import Tx\n",
    "from io import BytesIO\n",
    "raw_tx = ('0100000001813f79011acb80925dfe69b3def355fe914bd1d96a3f5f71bf8303c6a989c7d1000000006b483045022100ed81ff192e75a3fd2304004dcadb746fa5e24c5031ccfcf21320b0277457c98f02207a986d955c6e0cb35d446a89d3f56100f4d7f67801c31967743a9c8e10615bed01210349fc4e631e3624a545de3f89f5d8684c7b8138bd94bdd531d2e213bf016b278afeffffff02a135ef01000000001976a914bc3b654dca7e56b04dca18f2566cdaf02e8d9ada88ac99c39800000000001976a9141c4bc762dd5423e332166702cb75f40df79fea1288ac19430600')\n",
    "stream = BytesIO(bytes.fromhex(raw_tx))\n",
    "transaction = Tx.parse(stream)\n",
    "print(transaction.fee() >= 0)"
   ]
  },
  {
   "cell_type": "code",
   "execution_count": 3,
   "metadata": {},
   "outputs": [
    {
     "name": "stdout",
     "output_type": "stream",
     "text": [
      "True\n"
     ]
    }
   ],
   "source": [
    "from ecc import S256Point, Signature\n",
    "sec = bytes.fromhex('0349fc4e631e3624a545de3f89f5d8684c7b8138bd94bdd531d2e213bf016b278a')\n",
    "der = bytes.fromhex('3045022100ed81ff192e75a3fd2304004dcadb746fa5e24c5031ccfcf21320b0277457c98f02207a986d955c6e0cb35d446a89d3f56100f4d7f67801c31967743a9c8e10615bed')\n",
    "z = 0x27e0c5994dec7824e56dec6b2fcb342eb7cdb0d0957c2fce9882f715e85d81a6\n",
    "point = S256Point.parse(sec)\n",
    "signature = Signature.parse(der)\n",
    "print(point.verify(z, signature))"
   ]
  },
  {
   "cell_type": "code",
   "execution_count": 4,
   "metadata": {},
   "outputs": [
    {
     "name": "stdout",
     "output_type": "stream",
     "text": [
      "0x27e0c5994dec7824e56dec6b2fcb342eb7cdb0d0957c2fce9882f715e85d81a6\n"
     ]
    }
   ],
   "source": [
    "from helper import hash256\n",
    "modified_tx = bytes.fromhex('0100000001813f79011acb80925dfe69b3def355fe914bd1d96a3f5f71bf8303c6a989c7d1000000001976a914a802fc56c704ce87c42d7c92eb75e7896bdc41ae88acfeffffff02a135ef01000000001976a914bc3b654dca7e56b04dca18f2566cdaf02e8d9ada88ac99c39800000000001976a9141c4bc762dd5423e332166702cb75f40df79fea1288ac1943060001000000')\n",
    "h256 = hash256(modified_tx)\n",
    "z = int.from_bytes(h256, 'big')\n",
    "print(hex(z))"
   ]
  },
  {
   "cell_type": "code",
   "execution_count": 5,
   "metadata": {},
   "outputs": [
    {
     "data": {
      "text/plain": [
       "True"
      ]
     },
     "execution_count": 5,
     "metadata": {},
     "output_type": "execute_result"
    }
   ],
   "source": [
    "from ecc import S256Point, Signature\n",
    "sec = bytes.fromhex('0349fc4e631e3624a545de3f89f5d8684c7b8138bd94bdd531d2e213bf016b278a')\n",
    "der = bytes.fromhex('3045022100ed81ff192e75a3fd2304004dcadb746fa5e24c5031ccfcf21320b0277457c98f02207a986d955c6e0cb35d446a89d3f56100f4d7f67801c31967743a9c8e10615bed')\n",
    "z = 0x27e0c5994dec7824e56dec6b2fcb342eb7cdb0d0957c2fce9882f715e85d81a6\n",
    "point = S256Point.parse(sec)\n",
    "signature = Signature.parse(der)\n",
    "point.verify(z, signature)"
   ]
  },
  {
   "cell_type": "markdown",
   "metadata": {},
   "source": [
    "### Exercise 1\n",
    "\n",
    "Write the `sig_hash` method for the `Tx` class.\n",
    "\n",
    "#### Make [this test](/edit/code-ch07/tx.py) pass: `tx.py:TxTest:test_sig_hash`"
   ]
  },
  {
   "cell_type": "code",
   "execution_count": 13,
   "metadata": {},
   "outputs": [
    {
     "name": "stderr",
     "output_type": "stream",
     "text": [
      ".\n",
      "----------------------------------------------------------------------\n",
      "Ran 1 test in 0.003s\n",
      "\n",
      "OK\n"
     ]
    }
   ],
   "source": [
    "# Exercise 1\n",
    "\n",
    "reload(tx)\n",
    "run(tx.TxTest(\"test_sig_hash\"))"
   ]
  },
  {
   "cell_type": "markdown",
   "metadata": {},
   "source": [
    "### Exercise 2\n",
    "\n",
    "Write the `verify_input` method for the `Tx` class. You will want to use the `TxIn.script_pubkey()`, `Tx.sig_hash()` and `Script.evaluate()` methods.\n",
    "\n",
    "#### Make [this test](/edit/code-ch07/tx.py) pass: `tx.py:TxTest:test_verify_p2pkh`"
   ]
  },
  {
   "cell_type": "code",
   "execution_count": 15,
   "metadata": {},
   "outputs": [
    {
     "name": "stderr",
     "output_type": "stream",
     "text": [
      ".\n",
      "----------------------------------------------------------------------\n",
      "Ran 1 test in 0.281s\n",
      "\n",
      "OK\n"
     ]
    }
   ],
   "source": [
    "# Exercise 2\n",
    "\n",
    "reload(tx)\n",
    "run(tx.TxTest(\"test_verify_p2pkh\"))"
   ]
  },
  {
   "cell_type": "code",
   "execution_count": null,
   "metadata": {},
   "outputs": [],
   "source": [
    "from helper import decode_base58, SIGHASH_ALL\n",
    "from script import p2pkh_script, Script\n",
    "from tx import TxIn, TxOut, Tx\n",
    "prev_tx = bytes.fromhex('0d6fe5213c0b3291f208cba8bfb59b7476dffacc4e5cb66f6eb20a080843a299')\n",
    "prev_index = 13\n",
    "tx_in = TxIn(prev_tx, prev_index)\n",
    "tx_outs = []\n",
    "change_amount = int(0.33*100000000)\n",
    "change_h160 = decode_base58('mzx5YhAH9kNHtcN481u6WkjeHjYtVeKVh2')\n",
    "change_script = p2pkh_script(change_h160)\n",
    "change_output = TxOut(amount=change_amount, script_pubkey=change_script)\n",
    "target_amount = int(0.1*100000000)\n",
    "target_h160 = decode_base58('mnrVtF8DWjMu839VW3rBfgYaAfKk8983Xf')\n",
    "target_script = p2pkh_script(target_h160)\n",
    "target_output = TxOut(amount=target_amount, script_pubkey=target_script)\n",
    "tx_obj = Tx(1, [tx_in], [change_output, target_output], 0, True)\n",
    "print(tx_obj)"
   ]
  },
  {
   "cell_type": "code",
   "execution_count": null,
   "metadata": {},
   "outputs": [],
   "source": [
    "from ecc import PrivateKey\n",
    "from helper import SIGHASH_ALL\n",
    "z = transaction.sig_hash(0)\n",
    "private_key = PrivateKey(secret=8675309)\n",
    "der = private_key.sign(z).der()\n",
    "sig = der + SIGHASH_ALL.to_bytes(1, 'big')\n",
    "sec = private_key.point.sec()\n",
    "script_sig = Script([sig, sec])\n",
    "transaction.tx_ins[0].script_sig = script_sig \n",
    "print(transaction.serialize().hex())"
   ]
  },
  {
   "cell_type": "code",
   "execution_count": null,
   "metadata": {},
   "outputs": [],
   "source": [
    "from ecc import PrivateKey\n",
    "from helper import hash256, little_endian_to_int\n",
    "secret = little_endian_to_int(hash256(b'Jimmy Song secret'))\n",
    "private_key = PrivateKey(secret)\n",
    "print(private_key.point.address(testnet=True))"
   ]
  },
  {
   "cell_type": "markdown",
   "metadata": {},
   "source": [
    "### Exercise 3\n",
    "\n",
    "Write the `sign_input` method for the `Tx` class.\n",
    "\n",
    "#### Make [this test](/edit/code-ch07/tx.py) pass: `tx.py:TxTest:test_sign_input`"
   ]
  },
  {
   "cell_type": "code",
   "execution_count": 2,
   "metadata": {},
   "outputs": [
    {
     "name": "stderr",
     "output_type": "stream",
     "text": [
      ".\n",
      "----------------------------------------------------------------------\n",
      "Ran 1 test in 0.113s\n",
      "\n",
      "OK\n"
     ]
    }
   ],
   "source": [
    "# Exercise 3\n",
    "\n",
    "reload(tx)\n",
    "run(tx.TxTest(\"test_sign_input\"))"
   ]
  },
  {
   "cell_type": "markdown",
   "metadata": {},
   "source": [
    "### Exercise 4\n",
    "\n",
    "Create a testnet transaction that sends 60% of a single UTXO to `mwJn1YPMq7y5F8J3LkC5Hxg9PHyZ5K4cFv`. The remaining amount minus fees should go back to your own change address. This should be a 1 input, 2 output transaction.\n",
    "\n",
    "You can broadcast the transaction at https://testnet.blockchain.info/pushtx"
   ]
  },
  {
   "cell_type": "code",
   "execution_count": 62,
   "metadata": {},
   "outputs": [
    {
     "name": "stdout",
     "output_type": "stream",
     "text": [
      "0100000001aba802be040d8df506fe2a5cbe372df065cb74d5c3fd8a6b74dc8205db10d14b010000006a473044022068695d7eaa2176fd311ee04aba7ced7b9c7b95b8bb8fea1c5a1f7ef144deeee5022008affc36e811ad645fb678cbb739ebd708ec24b03fb5311967c5d89cc10c443f012103199d61763ed453c3612ac6d545f5c4381a84e64c7d10709e3068e8855e71bb45ffffffff023c0f0000000000001976a91492df3db1246b21e93c8f660eaf19df851ec8ec8b88ac70170000000000001976a914ad346f8eb57dee9a37981716e498120ae80e44f788ac00000000\n"
     ]
    }
   ],
   "source": [
    "# Exercise 4\n",
    "\n",
    "from ecc import PrivateKey\n",
    "from helper import decode_base58, SIGHASH_ALL, little_endian_to_int, hash256\n",
    "from script import p2pkh_script, Script\n",
    "from tx import TxIn, TxOut, Tx\n",
    "\n",
    "# create 1 TxIn and 2 TxOuts\n",
    "# 1 of the TxOuts should be back to your address\n",
    "# the other TxOut should be to this address\n",
    "target_address = 'mwJn1YPMq7y5F8J3LkC5Hxg9PHyZ5K4cFv'\n",
    "\n",
    "# get the private key from the exercise in Chapter 4\n",
    "# change address should be the address generated from Chapter 4\n",
    "passphrase = b'negu6633@gmail.comneverevergiveup63'\n",
    "secret = little_endian_to_int(hash256(passphrase))\n",
    "private_key = PrivateKey(secret=secret)\n",
    "address = private_key.point.address(testnet=True)\n",
    "\n",
    "# get the prev_tx and prev_index from the transaction where you got\n",
    "# some testnet coins\n",
    "# create a transaction input for the previous transaction with\n",
    "# the default ScriptSig and sequence\n",
    "prev_tx = bytes.fromhex('4bd110db0582dc746b8afdc3d574cb65f02d37be5c2afe06f58d0d04be02a8ab')\n",
    "prev_index = 1\n",
    "tx_in = TxIn(prev_tx, prev_index)\n",
    "\n",
    "# target amount should be 60% of the output amount\n",
    "# set the fee to some reasonable amount\n",
    "# change amount = amount from the prev tx - target amount - fee\n",
    "tx_outs = []\n",
    "amount = tx_in.fetch_tx(testnet=True).tx_outs[1].amount\n",
    "\n",
    "# create a transaction output for the target amount and address\n",
    "# create a transaction output for the change amount and address\n",
    "# create the transaction object\n",
    "change_amount = int(amount*0.39)\n",
    "change_h160 = decode_base58(address)\n",
    "change_script = p2pkh_script(change_h160)\n",
    "change_output = TxOut(amount=change_amount, script_pubkey=change_script)\n",
    "target_amount = int(amount*0.6)\n",
    "target_h160 = decode_base58(target_address)\n",
    "target_script = p2pkh_script(target_h160)\n",
    "target_output = TxOut(amount=target_amount, script_pubkey=target_script)\n",
    "tx_obj = Tx(1, [tx_in], [change_output, target_output], 0, True)\n",
    "\n",
    "# sign the one input in the transaction object using the private key\n",
    "# print the transaction's serialization in hex\n",
    "# broadcast at http://testnet.blockchain.info/pushtx\n",
    "z = tx_obj.sig_hash(0)\n",
    "der = private_key.sign(z).der()\n",
    "sig = der + SIGHASH_ALL.to_bytes(1, 'big')\n",
    "sec = private_key.point.sec()\n",
    "script_sig = Script([sig, sec])\n",
    "tx_obj.tx_ins[0].script_sig = script_sig\n",
    "print(tx_obj.serialize().hex())"
   ]
  },
  {
   "cell_type": "markdown",
   "metadata": {},
   "source": [
    "### Exercise 5\n",
    "\n",
    "Advanced: get some more testnet coins from a testnet faucet and create a 2 input, 1 output transaction. 1 input should be from the faucet, the other should be from the previous exercise, the output can be your own address.\n",
    "\n",
    "You can broadcast the transaction at https://testnet.blockchain.info/pushtx"
   ]
  },
  {
   "cell_type": "code",
   "execution_count": 61,
   "metadata": {},
   "outputs": [
    {
     "name": "stdout",
     "output_type": "stream",
     "text": [
      "010000000295131b4e812636d56042fb2ad6a3a1490b7533dc4b27e339ead56ec2ea164d2c000000006a47304402203e5b9c33e2a0527aba3ad1ffff601a01430909c6140d7a3decccf9c66caff7750220447ad5163ff0df206ac86656b7b49bf61b6457da1aaa46d06918a0cf0465390d012102c53788b1f1f92206e5083cf59af7321b8d39bec0d5bd41a92bd09cdda367da54ffffffff1de705d3e2f13a934b07bb0353fd601c6aa043a1859f73dedd1e96ab8d7c2f22000000006a47304402204e55ead580a75eb3e60547ae53abfbb09b363fa83e7aeec3f7b26811350bb67002200e0ad694baa45583d123f72cf819ad8f2c07035193c798a54fc4e8ae61e4d356012102c53788b1f1f92206e5083cf59af7321b8d39bec0d5bd41a92bd09cdda367da54ffffffff01e8030000000000001976a914ad346f8eb57dee9a37981716e498120ae80e44f788ac00000000\n",
      "e5dc9e43f3803437b67b316be6f7c0fb31d55abcbb9cc57391fec3e4510cbad8\n"
     ]
    }
   ],
   "source": [
    "# Exercise 5\n",
    "\n",
    "from ecc import PrivateKey\n",
    "from helper import decode_base58, SIGHASH_ALL, little_endian_to_int, hash256\n",
    "from script import p2pkh_script, Script\n",
    "from tx import TxIn, TxOut, Tx\n",
    "\n",
    "# Create 2 TxIns, 1 from the Exercise 4 and 1 from a testnet faucet\n",
    "# Creat 1 TxOut to the address above\n",
    "target_address = 'mwJn1YPMq7y5F8J3LkC5Hxg9PHyZ5K4cFv'\n",
    "\n",
    "# get the private key from the exercise in Chapter 4\n",
    "passphrase = b'negu6363'\n",
    "secret = little_endian_to_int(hash256(passphrase))\n",
    "private_key = PrivateKey(secret=secret)\n",
    "address = private_key2.point.address(testnet=True)\n",
    "\n",
    "# get the prev_tx and prev_index from the transaction where you got\n",
    "# some testnet coins\n",
    "# create the first transaction input with the default ScriptSig and\n",
    "# sequence\n",
    "# get the prev_tx and prev_index from the transaction in Exercise 4\n",
    "# create the second transaction input with the default ScriptSig and\n",
    "# sequence\n",
    "prev_tx = bytes.fromhex('2c4d16eac26ed5ea39e3274bdc33750b49a1a3d62afb4260d53626814e1b1395')\n",
    "prev_index = 0\n",
    "tx_in = TxIn(prev_tx=prev_tx, prev_index=prev_index)\n",
    "prev_tx2 = bytes.fromhex('222f7c8dab961eddde739f85a143a06a1c60fd5303bb074b933af1e2d305e71d')\n",
    "prev_index2 = 0\n",
    "tx_in2 = TxIn(prev_tx=prev_tx2, prev_index=prev_index2)\n",
    "\n",
    "# set the fee to some reasonable amount\n",
    "# target amount should be the sum of the inputs - fee\n",
    "amount = 0\n",
    "\n",
    "# create a transaction output for the amount and address\n",
    "target_amount = int(0.00001*100000000)\n",
    "target_h160 = decode_base58(target_address)\n",
    "target_script = p2pkh_script(target_h160)\n",
    "target_output = TxOut(amount=target_amount, script_pubkey=target_script)\n",
    "tx_obj = Tx(1, [tx_in, tx_in2], [target_output], 0, True)\n",
    "\n",
    "# sign the first input using the private key\n",
    "z = tx_obj.sig_hash(0)\n",
    "der = private_key.sign(z).der()\n",
    "sig = der + SIGHASH_ALL.to_bytes(1, 'big')\n",
    "sec = private_key.point.sec()\n",
    "script_sig = Script([sig, sec])\n",
    "tx_obj.tx_ins[0].script_sig = script_sig\n",
    "# sign the second input using the private key\n",
    "z = tx_obj.sig_hash(1)\n",
    "der = private_key.sign(z).der()\n",
    "sig = der + SIGHASH_ALL.to_bytes(1, 'big')\n",
    "sec = private_key.point.sec()\n",
    "script_sig = Script([sig, sec])\n",
    "tx_obj.tx_ins[1].script_sig = script_sig\n",
    "\n",
    "# print the transaction's serialization in hex\n",
    "# broadcast at http://testnet.blockchain.info/pushtx\n",
    "print(tx_obj.serialize().hex())\n",
    "print(tx_obj.id())"
   ]
  },
  {
   "cell_type": "code",
   "execution_count": null,
   "metadata": {},
   "outputs": [],
   "source": []
  }
 ],
 "metadata": {
  "kernelspec": {
   "display_name": "Python 3 (ipykernel)",
   "language": "python",
   "name": "python3"
  },
  "language_info": {
   "codemirror_mode": {
    "name": "ipython",
    "version": 3
   },
   "file_extension": ".py",
   "mimetype": "text/x-python",
   "name": "python",
   "nbconvert_exporter": "python",
   "pygments_lexer": "ipython3",
   "version": "3.9.7"
  }
 },
 "nbformat": 4,
 "nbformat_minor": 2
}
